:100000005CC000007FC000007DC000007BC000001D
:1000100079C0000077C0000075C0000073C0000008
:1000200071C000006FC000006DC000006BC0000018
:1000300069C0000044C3000065C0000063C0000048
:10004000E8C400005FC0000080C70000B0C7000027
:1000500059C0000057C0000055C0000053C0000048
:1000600051C000004FC00000000000080002010065
:100070000003040700000000000000000102040863
:100080001020408001020408102001020408102002
:10009000040404040404040402020202020203032E
:1000A0000303030300000000250028002B000000CC
:1000B0000000240027002A00FC0711241FBECFEFF8
:1000C000D8E0DEBFCDBF11E0A0E0B1E0E0E0F1E1BB
:1000D00002C005900D92AC32B107D9F722E0ACE234
:1000E000B1E001C01D92A531B207E1F710E0CDE506
:1000F000D0E003C02197FE01FBD7CC35D107D1F763
:1001000040D3FCC77DCF611101C08CC56130E9F3DC
:1001100062E0FBCF662311F061E0C0C560E0FDCF77
:10012000CF92DF92EF92FF92CF93882331F16A0151
:100130007B01CFEFC80F20E030E0A901CB01B60171
:1001400057D3181684F0C701B60190585AD39B01B3
:10015000AC016C2F70E090E080E0CF91FF90EF90C9
:10016000DF90CF90ACC0C701B60146D38C2FCF91A2
:10017000FF90EF90DF90CF90D1C4CF91FF90EF90A0
:10018000DF90CF9008950F931F938B019C0183E024
:1001900036952795179507958A95D1F7045D1E4FDB
:1001A000462F477021E030E0F90102C0EE0FFF1F3B
:1001B0004A95E2F7AF01F80120812423CB01019693
:1001C000211102C090E080E01F910F9108950F93DC
:1001D0001F938B019C0183E0369527951795079512
:1001E0008A95D1F7677081E090E001C0880F6A9529
:1001F000EAF7F801E45DFE4F2081452B31F480954C
:10020000822380831F910F910895822BFACF2F9222
:100210003F924F925F926F927F928F929F92AF9296
:10022000BF92CF92DF92EF92FF920F931F93CF93E3
:10023000DF93D62EC72E782E692E49015A01280148
:1002400061E08D2DEFD4CD2DDC2D8E010F5F1F4F82
:10025000A8016D2D7C2D872D962DB9DF20E030E093
:10026000A901C201B70146D3181654F4C201B7015F
:10027000C8D22B01C501B401C4D2A201CE0122D043
:10028000C801DF91CF911F910F91FF90EF90DF9008
:10029000CF90BF90AF909F908F907F906F905F9026
:1002A0004F903F902F900895882341F08150682F00
:1002B00070E090E080E050E040E089CF0895862F24
:1002C000B9012CC49C01FC01E859FF4FE491E330D3
:1002D00059F138F4E13009F1E23019F160E0822F90
:1002E000DDC4E730C1F1E83009F441C0E430B1F7D2
:1002F000809180008C7F826080938000909181004B
:10030000907E9061692B60938100509387004093A9
:1003100086008091800080621BC084B5806884BDA7
:10032000DDCF84B58062FBCF809180008C7F8260BE
:100330008093800090918100907E9061692B609302
:1003400081005093870040938600809180008068F0
:1003500080938000C3CF8091B00080688093B0000C
:100360008091B100887F682B6093B100B7CF8091F6
:10037000B0008062F3CF4F925F926F927F928F9224
:100380009F92AF92BF92CF92DF92EF92FF920F9324
:100390001F93CF93DF93C0900801D0900901E090A4
:1003A0000A01F0900B018090000190900101A09053
:1003B0000201B0900301409004015090050160904B
:1003C000060170900701A5019401C701B60192D200
:1003D00060E0181654F0C1E0A3019201C701B60114
:1003E00007D2811101C0C0E06C2F83E093DEA3012E
:1003F0009201C701B601FCD160E0882351F0C1E051
:10040000A5019401C701B60175D218160CF0C0E021
:100410006C2F8BE07FDE65E070E080E090E0B3DE83
:10042000EC019093F7018093F6012091080130913F
:10043000090140910A0150910B0160910C017091EA
:100440000D0180910E0190910F0158D25B018C013A
:10045000C0901001D0901101E0901201F0901301B2
:100460009B01AC01C701B601C3D187FD11C0C0908B
:100470001401D0901501E0901601F090170195013C
:10048000A801C701B60136D2181614F0650178012B
:10049000E894F7F820E030E04FE753E4C701B601F5
:1004A000A7D1181634F4C12CD12C8FE7E82E83E4A1
:1004B000F82EB701A601CE01DF91CF911F910F91C8
:1004C000FF90EF90DF90CF90BF90AF909F908F9074
:1004D0007F906F905F904F9023CE8F929F92AF92BC
:1004E000BF92DF92EF92FF920F931F93CF93DF9310
:1004F00084E090E09ED01092360110923501C0EE5B
:10050000D1E08BE1FE0111928A95E9F7DD24D394C5
:10051000DA8E812C912C5401839489869A86AB863D
:10052000BC8661E083E0EFDDDD861882D98E8982AA
:100530009A82AB82BC8261E08BE0E5DDDD82188AC5
:10054000D88E898A9A8AAB8ABC8AE12CF12C8701E1
:10055000A801970165E070E080E090E058DE9F8B95
:100560008E8BDD8ADF91CF911F910F91FF90EF90DD
:10057000DF90BF90AF909F908F9008958091E80199
:10058000811103C081E08093E8018091E001811135
:1005900003C081E08093E0018091F00181112AC0C5
:1005A00081E08093F0018091F1019091F201A0919E
:1005B000F301B091F4010197A105B105D9F480913F
:1005C000F5018823B9F065E070E080E090E0DBDDC4
:1005D0009093F7018093F60140E050E0BA01A0DD6E
:1005E00065E070E080E090E0CEDD9093F7018093CD
:1005F000F6015ACE089560E070E080E89FE7089524
:1006000060E070E080E89FE7089560E070E080E8D7
:100610009FEF089560E070E080E89FEF089560E04C
:1006200070E080EC9FEF089560E070E080EC9FEF59
:100630000895F5DF60930702709308028093090222
:1006400090930A02F1DF6093FB017093FC018093A9
:10065000FD019093FE01CFDF6093030270930402CB
:100660008093050290930602CBDF6093FF017093A5
:1006700000028093010290930202C7DF60930B0295
:1006800070930C0280930D0290930E02C3DF60936F
:100690000F0270931002809311029093120208953A
:1006A00026E030E040E855E260E070E090E080E075
:1006B00000C0892B19F483E491E0E7C308951F92E9
:1006C0000F920FB60F9211242F933F934F935F9386
:1006D0006F937F938F939F93AF93BF93EF93FF930A
:1006E00086E997EE909385008093840032D0FF9145
:1006F000EF91BF91AF919F918F917F916F915F919A
:100700004F913F912F910F900FBE0F901F90189512
:1007100086E997EE9093850080938400AFE6B0E081
:100720008C918E7F8C93E0E8F0E080818C7F8083D9
:10073000E1E8F0E08081877E80838081846080832F
:1007400080818C7F80838C9181608C93089581E07F
:1007500008958091370191E0980F90933701882395
:1007600049F021E030E03093390120933801809343
:10077000370108957894FFDDF89480913701815016
:10078000F6CFCF93DF9310921402109213028BD105
:1007900087DFC0911801D0911901198218829DDE5E
:1007A000F894B6DF81E028813981232B09F080E0BD
:1007B000809313027894789480911302811107C07A
:1007C000DDDEF89490E080E0DF91CF91089581E044
:1007D00028813981232B09F480E0809314029091C1
:1007E000140281E0911180E080931302B0DFE4CF26
:1007F00034D008F481E0089504D06894B11174C035
:10080000089557D088F09F5790F0B92F9927B75186
:10081000A0F0D1F0660F771F881F991F1AF0BA95C4
:10082000C9F712C0B13081F05ED0B1E008955BC06D
:10083000672F782F8827B85F39F0B93FCCF38695BA
:1008400077956795B395D9F73EF490958095709517
:1008500061957F4F8F4F9F4F0895990F0008550F57
:10086000AA0BE0E8FEEF16161706E807F907C0F036
:1008700012161306E407F50798F0621B730B840B3E
:10088000950B39F40A2661F0232B242B252B21F418
:1008900008950A2609F4A140A6958FEF811D811DB8
:1008A000089557FD9058440F551F59F05F3F71F060
:1008B0004795880F97FB991F61F09F3F79F08795C7
:1008C0000895121613061406551FF2CF4695F1DF50
:1008D00008C0161617061806991FF1CF86957105E0
:1008E000610508940895E894BB2766277727CB0114
:1008F00097F90895B2DF08F48FEF08950BD078C010
:1009000069D028F06ED018F0952309F05AC05FC066
:100910001124EACFC6DFA0F3959FD1F3950F50E0E5
:10092000551F629FF001729FBB27F00DB11D639FA1
:10093000AA27F00DB11DAA1F649F6627B00DA11D47
:10094000661F829F2227B00DA11D621F739FB00DED
:10095000A11D621F839FA00D611D221F749F33275D
:10096000A00D611D231F849F600D211D822F762FF6
:100970006A2F11249F5750408AF0E1F088234AF0F3
:10098000EE0FFF1FBB1F661F771F881F915050403F
:10099000A9F79E3F510570F014C0A6CF5F3FECF35E
:1009A000983EDCF3869577956795B795F795E7952B
:1009B0009F5FC1F7FE2B880F911D9695879597F93C
:1009C000089597F99F6780E870E060E008959FEFD1
:1009D00080EC089500240A941616170618060906D6
:1009E000089500240A9412161306140605060895A5
:1009F000092E0394000C11F4882352F0BB0F40F42D
:100A0000BF2B11F460FF04C06F5F7F4F8F4F9F4F6C
:100A100008951F920F920FB60F9211242F933F93B8
:100A20008F939F93AF93BF9380913B0190913C0133
:100A3000A0913D01B0913E0130913A0123E0230F96
:100A40002D3758F50196A11DB11D20933A018093D1
:100A50003B0190933C01A0933D01B0933E018091F6
:100A60003F0190914001A0914101B0914201019656
:100A7000A11DB11D80933F0190934001A0934101BE
:100A8000B0934201BF91AF919F918F913F912F9170
:100A90000F900FBE0F901F90189526E8230F029617
:100AA000A11DB11DD2CF789484B5826084BD84B578
:100AB000816084BD85B5826085BD85B5816085BD59
:100AC000EEE6F0E0808181608083E1E8F0E0108272
:100AD000808182608083808181608083E0E8F0E0B3
:100AE000808181608083E1EBF0E08081846080839D
:100AF000E0EBF0E0808181608083EAE7F0E08081D4
:100B00008460808380818260808380818160808333
:100B10008081806880831092C10008951F93CF93D5
:100B2000DF93182FEB0161E07DD0209731F460E076
:100B3000812FDF91CF911F91B1C0CF3FD10511F42B
:100B400061E0F6CFE12FF0E0E859FF4FE491E330A8
:100B500031F140F4E130B1F0E230E1F0C038D105DC
:100B60007CF7E5CFE73029F1E83059F1E430B1F70F
:100B700080918000806280938000D0938B00C0932E
:100B80008A0004C084B5806884BDC7BDDF91CF9161
:100B90001F91089584B5806284BDC8BDF7CF809150
:100BA0008000806880938000D0938900C093880083
:100BB000EDCF8091B00080688093B000C093B30007
:100BC000E5CF8091B00080628093B000C093B40004
:100BD000DDCF833081F028F4813099F08230A9F0A4
:100BE00008958730A9F08830C9F08430B1F480913D
:100BF00080008F7D03C0809180008F77809380007C
:100C0000089584B58F7784BD089584B58F7DFBCF1B
:100C10008091B0008F778093B00008958091B000EC
:100C20008F7DF9CFCF93DF9390E0FC01E458FF4F25
:100C3000249180579F4FFC0184918823C9F090E054
:100C4000880F991FFC01E255FF4FA591B491FC015B
:100C5000EC55FF4FC591D49161110DC09FB7F89429
:100C60008C91209582238C938881282328839FBF91
:100C7000DF91CF910895623051F49FB7F8943C9181
:100C8000822F809583238C93E8812E2BEFCF8FB713
:100C9000F894EC912E2B2C938FBFEACF1F93CF9318
:100CA000DF93282F30E0F901E859FF4F8491F901D3
:100CB000E458FF4FD491F901E057FF4FC491CC2382
:100CC000A1F0162F811185DFEC2FF0E0EE0FFF1F52
:100CD000EC55FF4FA591B4918FB7F894EC91111199
:100CE00008C0D095DE23DC938FBFDF91CF911F9199
:100CF0000895DE2BF8CFFC01918D228D892F90E095
:100D0000805C9F4F821B91098F7399270895FC0186
:100D1000918D828D981731F0828DE80FF11D858DB0
:100D200090E008958FEF9FEF0895FC01918D828DE3
:100D3000981761F0A28DAE0FBF2FB11D5D968C91FB
:100D4000928D9F5F9F73928F90E008958FEF9FEF3A
:100D50000895FC01538D448D252F30E0842F90E0C1
:100D6000821B930B541710F0CF96089501970895A6
:100D7000FC01A48DA80FB92FB11DA35ABF4F2C9110
:100D8000848D90E001968F739927848FA689B78907
:100D90002C93A089B1898C91837080648C93938DFE
:100DA000848D981306C00288F389E02D80818F7DA1
:100DB00080830895CF93DF93EC01888D8823B1F071
:100DC000AA89BB89E889F9898C9185FD03C0808156
:100DD00086FD0CC00FB607FCF7CF8C9185FFF2CFD4
:100DE000808185FFEDCFCE01C3DFEACFDF91CF91C8
:100DF0000895EF92FF920F931F93CF93DF93EC012F
:100E000081E0888F9B8D8C8D98131AC0E889F989B1
:100E1000808185FF15C09FB7F894EE89FF896083B4
:100E2000E889F98980818370806480839FBF81E035
:100E300090E0DF91CF911F910F91FF90EF90089577
:100E4000F62E0B8D10E00F5F1F4F0F731127E02E52
:100E50008C8D8E110BC00FB607FCFACFE889F9898B
:100E6000808185FFF5CFCE0183DFF2CFEB8DEC0FD4
:100E7000FD2FF11DE35AFF4FF0829FB7F8940B8FBF
:100E8000EA89FB8980818062D0CFCF92DF92EF9296
:100E9000FF921F93CF93DF93EC016A017B01122F26
:100EA000E889F98982E08083C11481EED806E104E3
:100EB000F10499F060E079E08DE390E0A7019601FC
:100EC000F5D021503109410951095695479537957B
:100ED0002795211580E1380790F0E889F98910827B
:100EE00060E874E88EE190E0A7019601DFD0215020
:100EF0003109410951095695479537952795EC8554
:100F0000FD853083EE85FF852083188EEC89FD8971
:100F10001083EA89FB89808180618083EA89FB896B
:100F2000808188608083EA89FB89808180688083F2
:100F3000EA89FB8980818F7D8083DF91CF911F912A
:100F4000FF90EF90DF90CF9008951F920F920FB611
:100F50000F9211242F938F939F93EF93FF93E09120
:100F60005301F09154018081E0915901F0915A01AF
:100F700082FD1BC0908180915C018F5F8F732091F7
:100F80005D01821741F0E0915C01F0E0ED5BFE4F06
:100F9000958F80935C01FF91EF919F918F912F919D
:100FA0000F900FBE0F901F9018958081F4CF1F9265
:100FB0000F920FB60F9211242F933F934F935F938D
:100FC0006F937F938F939F93AF93BF93EF93FF9311
:100FD00083E491E0CDDEFF91EF91BF91AF919F91BE
:100FE0008F917F916F915F914F913F912F910F90D2
:100FF0000FBE0F901F901895E3E4F1E01382128268
:1010000088EE93E0A0E0B0E084839583A683B78365
:101010008EE191E09183808385EC90E095878487D1
:1010200084EC90E09787868780EC90E0918B808BB2
:1010300081EC90E0938B828B82EC90E0958B848B9B
:1010400086EC90E0978B868B118E128E138E148E09
:101050000895AF92BF92CF92DF92EF92FF920F93DB
:101060001F93CF93DF936C017B018B01040F151F3E
:10107000EB015E01AE18BF08C017D10759F06991A6
:10108000D601ED91FC910190F081E02DC60109950A
:10109000892B79F7C501DF91CF911F910F91FF90B7
:1010A000EF90DF90CF90BF90AF900895A1E21A2EFD
:1010B000AA1BBB1BFD010DC0AA1FBB1FEE1FFF1FFC
:1010C000A217B307E407F50720F0A21BB30BE40B4C
:1010D000F50B661F771F881F991F1A9469F7609593
:1010E0007095809590959B01AC01BD01CF0108954D
:1010F000EE0FFF1F0590F491E02D0994F894FFCFB7
:101100000000000000000000000070423333234064
:1011100000007F4300007FC3350100000000F90696
:0C1120002908A906DA067B06950687065A
:00000001FF
