:100000005CC0000082C0000080C000007EC0000014
:100010007CC000007AC0000078C0000076C00000FC
:1000200074C0000072C0000070C000006EC000000C
:100030006CC000000C94B41F68C0000066C00000D3
:100040000C94DC2562C000000C94D3280C94052984
:100050005CC000005AC0000058C0000056C000003C
:1000600054C0000052C0000000000008000201005F
:100070000003040700000000000000000102040863
:100080001020408001020408102001020408102002
:10009000040404040404040402020202020203032E
:1000A0000303030300000000250028002B000000CC
:1000B0000000240027002A002A2911241FBECFEFA8
:1000C000D8E0DEBFCDBF11E0A0E0B1E0E6EFF3E5A0
:1000D00002C005900D92A83CB107D9F724E0A8EC26
:1000E000B1E001C01D92AF31B207E1F710E0CDE5FC
:1000F000D0E004C02197FE010E94CA29CC35D10767
:10010000C9F70E94CC200C94F9297ACF90E080E0C6
:1001100008950F931F93009709F487C06115710527
:1001200009F483C0009100011091010120910201A6
:10013000309103010E3F1F4F2F4F3F4F09F066C014
:100140004FEF5FEFBA0140930001509301016093BC
:1001500002017093030140910001509101016091EF
:10016000020170910301DC011296ED91FC918081F6
:100170009181A281B3818093320290933302A09344
:100180003402B093350284819581A681B781809332
:100190002E0290932F02A0933002B09331028085FB
:1001A0009185A285B38580932A0290932B02A09318
:1001B0002C02B0932D0284859585A685B785809302
:1001C000260290932702A0932802B093290210924E
:1001D000220210922302109224021092250227D4A8
:1001E0008CE395E09093C9018093C8019093CB0173
:1001F0008093CA010BD3009731F421E030E03093B3
:100200003702209336021F910F910895009100014B
:10021000109101012091020130910301DB010D9346
:100220001D932D933C93139796CF8FEF9FEFEBCFBA
:100230008F929F92AF92BF92CF92DF92EF92FF92F6
:100240001F93CF93DF934B015C011091390282E041
:1002500090E0909337028093360281149104A104B8
:10026000B10441F480913902811104C080913802B7
:10027000C1E08111C0E0C12CD12C760180913902FE
:10028000811106C080913802811102C0CC23D1F0C7
:1002900083E090E09093370280933602CC2371F193
:1002A000CCE9DFEF111101C04BD7CE01DF91CF9127
:1002B0001F91FF90EF90DF90CF90BF90AF909F90F5
:1002C0008F9008956AE070E080E090E00E944B26F5
:1002D00080E1C80E87E2D81EE11CF11C8FEF881662
:1002E0009806A806B80631F0C1E08C149D04AE044F
:1002F000BF0408F0C0E080E0BDD2C0CFD0E0C0E0D5
:10030000D1CFCF92DF92EF92FF920F931F93CF93B3
:10031000DF938F3F910511F008F050C02091360215
:10032000309137022330310539F020913602309177
:1003300037022130310531F424E030E030933702C8
:10034000209336026A017B01EC0182309105A0F016
:1003500011E0AE01C701B60158D2AB01BC01CE011C
:100360001123F9F0DF91CF911F910F91FF90EF9042
:10037000DF90CF900C94C90A8C01000F111F085315
:100380001E4FD8018D919C91892B11F30E94D30AA5
:100390000297F1F6D801ED91FC91CE010995182F45
:1003A000D8CF0E94EB0A90E080E0DF91CF911F91BF
:1003B0000F91FF90EF90DF90CF9008958FEF9FEF18
:1003C000F4CF80E057C2CF93DF9386E090E0909324
:1003D000370280933602A7D2EC01E8ECF1E084E02A
:1003E000DF011D928A95E9F743D6109237021092E9
:1003F0003602CE01DF91CF910895809138020895A1
:10040000809121020895609300017093010180930F
:1004100002019093030190E080E008954F925F9273
:100420006F927F928F929F92AF92BF92CF92DF9204
:10043000EF92FF9288EE93E00E949A21C090F4011F
:10044000D090F501E090F601F090F7018FEFC81A17
:10045000D80AE80AF80AC092F401D092F501E092B5
:10046000F601F092F701C114D104E104F10499F40A
:100470008091F8019091F901A091FA01B091FB01EE
:100480000196A11DB11D8093F8019093F901A093ED
:10049000FA01B093FB018090FC019090FD01A090C7
:1004A000FE01B090FF016091F8017091F901809117
:1004B000FA019091FB010E94C324A50194010E94BE
:1004C000792520E030E040E85FE40E9479252B01A7
:1004D0003C01C701B6010E94C324A50194010E94FA
:1004E00079259B01AC01C301B2010E942A246093CB
:1004F000F0017093F1018093F2019093F301FF906A
:10050000EF90DF90CF90BF90AF909F908F907F90B3
:100510006F905F904F90089584E090E00E94D42304
:10052000EAEDF1E08BE2DF011D928A95E9F780E0C8
:1005300090E0A0E2B1E486A397A3A0A7B1A78DECB9
:100540009CECACECBDE382A393A3A4A3B5A389EC7C
:100550009FE3AEE6B4EB84839583A683B7838FEBEA
:1005600092E7A7E3BAE380879187A287B3878CEEEF
:1005700093E6AFEBB4E284879587A687B78781E9D6
:1005800095EDABE4B5EA808B918BA28BB38BAEEC8F
:10059000B1E0B383A2838CEC91E011969C938E938F
:1005A00085E391E09093CD018093CC018EEE91E0B4
:1005B00015969C938E9314978EED91E013969C93D1
:1005C0008E93129780EF91E017969C938E931697D7
:1005D000E8EEF3E08DE1DF011D928A95E9F7AF01C6
:1005E00063E074E08AED91E00E94812288EE93E05E
:1005F0000C94552188EE93E00C944C224F925F921C
:100600006F927F928F929F92AF92BF92CF92DF9222
:10061000EF92FF920F931F93F89440901102509025
:1006200012026090130270901402C0900502D090E4
:100630000602E0900702F0900802452B09F0A6C0E0
:100640009B01AC01241935094609570929013A01D2
:1006500000910D0210910E0220910F0230911002B4
:1006600048015901840C951CA61CB71C80169106E4
:10067000A206B306A0F40091090210910A0220918B
:100680000B0230910C020F5F1F4F2F4F3F4F009313
:10069000090210930A0220930B0230930C028092FD
:1006A0000D0290920E02A0920F02B09210020091E1
:1006B000090210910A0220910B0230910C028092E3
:1006C000150290921602A0921702B092180200939F
:1006D000190210931A0220931B0230931C0260939C
:1006E0001102709312028093130290931402A301DB
:1006F000920160EA76E881E090E00E9485296C0D25
:100700007D1D8E1D9F1D60930502709306028093D0
:1007100007029093080200910001109101012091BD
:100720000201309103010F3F1F4F2F4F3F4FF1F058
:10073000009100011091010120910201309103010B
:100740000E3F1F4F2F4F3F4F89F0C0900001D090B8
:100750000101E0900201F090030121E08C149D045E
:10076000AE04BF0408F420E02093210278941F9186
:100770000F91FF90EF90DF90CF90BF90AF909F9040
:100780008F907F906F905F904F9008954B015C0128
:1007900084189508A608B708A3019201261B370BF9
:1007A000480B590B6415750586059705E0F0821610
:1007B0009306A406B50640F420E030E0A9018114B8
:1007C0009104A104B104A1F460EA76E881E090E02C
:1007D0000E948529A7019601261B370B480B590B50
:1007E000CA01B901C3CF82169306A406B50660F705
:1007F000A501940160EA76E881E090E00E948529F5
:100800006C0D7D1D8E1D9F1DB1CFF8CECF93DF9354
:1008100000D000D0CDB7DEB71C821B821A821982AD
:1008200010921D0210921E0210921F0210922002BE
:10083000BE016F5F7F4FCE0103960E94971F6981B3
:100840007A818B819C810E94EA19009761F4BE0134
:100850006F5F7F4FCE0103960E94A31F69817A814B
:100860008B819C812CD50F900F900F900F90DF9172
:10087000CF910895FF920F931F93CF93DF93082F8B
:1008800060E070E0CB010E944B26FF24F3940E94AD
:10089000D518EC01892B89F010E0CE3F8FEFD807F7
:1008A00069F0002361F160E070E0CB010E944B260B
:1008B00081E090E0892B59F322C011E023D5EC01AF
:1008C000892B21F0CE3F8FEFD80759F711111EC0A9
:1008D00011E0229609F410E00E948618EC01892BA1
:1008E00021F0CE3F8FEFD807E1F6111111C011E0D2
:1008F000CE3F8FEFD80709F410E001110BC0CE01F5
:10090000DF91CF911F910F91FF90089511E0E4CFF7
:1009100011E0F3CF60E070E0CB010E944B261F2571
:10092000812F90E0C7CFCF93DF938091210288235E
:1009300021F060E070E0CB014CD635D6D0E0C0E0CD
:10094000892B71F06AE070E080E090E00E944B2615
:1009500081E090DF28D62196C03D27E0D20781F7BD
:1009600027D60E943E1A1092390210923802109235
:100970003202109233021092340210923502109219
:100980002E0210922F021092300210923102109219
:100990002A0210922B0210922C0210922D02109219
:1009A0002602109227021092280210922902109219
:1009B00022021092230210922402109225024EEF7E
:1009C0005FEF6FEF7FEF4093000150930101609361
:1009D00002017093030110922102E5E1F2E028E0A8
:1009E000DF011D922A95E9F710921102109212026E
:1009F000109213021092140210920D0210920E0225
:100A000010920F02109210021092090210920A0224
:100A100010920B0210920C02109205021092060224
:100A20001092070210920802DF91CF910895109260
:100A3000450210924602109247021092480210920C
:100A4000440280914D0290914E0290934302809314
:100A50004202109241021092400210923C02109207
:100A60003D0210923E0210923F0210924A021092F2
:100A7000490290E080E00895CF92DF92EF92FF92DA
:100A80000F931F93CF938C01892B09F055C02091B0
:100A90004D0230914E02809142029091430240916A
:100AA0004D0250914E025093430240934202281748
:100AB000390781F0109241021092400210923C02DC
:100AC00010923D0210923E0210923F0210924A0292
:100AD0001092490280914D0290914E02019761F56A
:100AE0008091490290914A02892B21F4809104015E
:100AF000811112C08091490290914A020197E1F45C
:100B000080913C0290913D02A0913E02B0913F0243
:100B10000197A105B10581F410923C0210923D02AB
:100B200010923E0210923F021092040182E090E087
:100B300090934A028093490280914D0290914E0217
:100B4000019709F01CC180916302909164028017A3
:100B5000910709F014C180915F0290916002A09109
:100B60006102B0916202009709F409C120915E020E
:100B700021110DC040915F025091600260916102AD
:100B800070916202452B462B472B09F4F8C0209147
:100B9000490230914A022230310509F0F0C020911B
:100BA00040022111ECC0FC01C080D180E280F380C2
:100BB00080914402882309F4D3C08091500290911F
:100BC0005102892B09F4FDC020915002309151024D
:100BD00081E02230310509F080E02091500230910F
:100BE0005102C1E02130310549F02091500230918D
:100BF0005102C1E02230310509F0C0E0882309F438
:100C000056C020915A0230915B0240915C02509193
:100C10005D02C701B6010E94752587FD14C02091B1
:100C20005A0230915B0240915C0250915D026091EA
:100C300045027091460280914702909148020E94BD
:100C40008E2487FD22C020915A0230915B02409190
:100C50005C0250915D02C701B6010E94752518160D
:100C600034F520915A0230915B0240915C02509120
:100C70005D02609145027091460280914702909119
:100C800048020E948E24811112C0809152029091DC
:100C90005302A0915402B0915502892B8A2B8B2BC1
:100CA00019F481E08093410281E080934002CC23DB
:100CB00009F456C020915A0230915B0240915C02C7
:100CC00050915D02C701B6010E948E2487FF14C0B7
:100CD00020915A0230915B0240915C0250915D027A
:100CE00060914502709146028091470290914802BE
:100CF0000E94752587FF22C020915A0230915B0225
:100D000040915C0250915D02C701B6010E948E24A1
:100D1000811126C020915A0230915B0240915C0201
:100D200050915D02609145027091460280914702A8
:100D3000909148020E947525181694F480915202F1
:100D400090915302A0915402B0915502892B8A2BA5
:100D50008B2B19F481E08093410281E08093400263
:100D600081E090914002911180E080934402C09212
:100D70004502D0924602E0924702F0924802012BCF
:100D800009F067C18091490290914A02892BD9F4F8
:100D900010924F021092400280910401882379F052
:100DA00082E090E090934A028093490210920401FD
:100DB00020914D0230914E0281E0232BE9F080E03A
:100DC0001BC081E00ACF1092040180914F0288235A
:100DD00049F01092410210924A0210924902109278
:100DE0004F02EDCF80914D0290914E02892BE1F0A0
:100DF00080914002109240022091490230914A02B3
:100E00002230310509F45EC088F42115310509F45A
:100E100048C02130310509F4F3C01092410210920C
:100E2000400210924F0238C081E0E6CF23303105F6
:100E300009F4B1C02430310581F740913C02509152
:100E40003D0260913E0270913F02411551056105DE
:100E5000710561F0415051096109710940933C02EB
:100E600050933D0260933E0270933F0240913C02DA
:100E700050913D0260913E0270913F02452B462BFE
:100E8000472BD9F420914B0230914C02213031058F
:100E900009F046C01092410210924A021092490293
:100EA0000CC080910401882341F082E090E090938F
:100EB0004A02809349021092040110923A028091F2
:100EC0004102CEC08823C9F380915202909153020F
:100ED000A0915402B0915502181619061A061B0665
:100EE0000CF07DC080914D0290914E02019709F067
:100EF00076C08091520290915302A0915402B09119
:100F0000550280933C0290933D02A0933E02B09321
:100F10003F0283E090E090934A0280934902CDCF54
:100F200040915602509157026091580270915902B7
:100F3000452B462B472BA9F0109241028091560277
:100F400090915702A0915802B091590280933C02AF
:100F500090933D02A0933E02B0933F0281E090E067
:100F6000DACF882399F08091050190910601A09134
:100F70000701B091080180933C0290933D02A09339
:100F80003E02B0933F0284E090E0C5CF1092410250
:100F900082E090E0C0CF80913C0290913D02A09110
:100FA0003E02B0913F020097A105B10559F00197AB
:100FB000A109B10980933C0290933D02A0933E02A7
:100FC000B0933F0280913C0290913D02A0913E027D
:100FD000B0913F02892B8A2B8B2B09F06ECF809129
:100FE000050190910601A0910701B0910801892B9C
:100FF0008A2B8B2B09F44ECF81E080934102B3CF33
:1010000040913C0250913D0260913E0270913F023E
:10101000411551056105710561F0415051096109A2
:10102000710940933C0250933D0260933E027093DD
:101030003F0240913C0250913D0260913E0270910E
:101040003F02452B462B472B09F037CF8111C7CFE5
:101050009FCF80913A02882309F431CF80913B02DF
:10106000CF911F910F91FF90EF90DF90CF90089557
:1010700010924502109246021092470210924802C6
:101080001092440210924A021092490210924302B6
:101090001092420210926402109263021092410276
:1010A0001092400210923C0210923D0210923E02B9
:1010B00010923F0210923B0210923A0210925F028D
:1010C00010926002109261021092620210925E020F
:1010D00010925A0210925B0210925C0210925D0212
:1010E00088EE93E0A0E0B0E08093050190930601C4
:1010F000A0930701B0930801109256021092570274
:1011000010925802109259021092520210925302F9
:1011100010925402109255021092510210925002F5
:1011200081E08093040110924F0210924E021092BF
:101130004D0210924C0210924B0290E080E0089514
:1011400080914D0290914E02892B19F580910401F6
:10115000882351F080914F02811106C081E0809375
:101160003B0280933A02089520914F02309104018E
:1011700081E090E0332311F090E080E030E08223C2
:101180009323892B21F010923B0281E0EACF109249
:101190003A02089582E090E0FA01918380838FEF14
:1011A0009FEF0895CF93DF93EA01009711F00E941B
:1011B000B81A1982188290E080E0DF91CF910895EB
:1011C000DB01009719F48FEF8C9308952EEF2C9389
:1011D0000F968F30910508F033C0FC01EE50F74FA9
:1011E0000C94CA291E091C091A09180916091209A2
:1011F000140910090E090C09090905090109070953
:10120000200980E311968C93089589E2FBCF82E256
:10121000F9CF11961C92089583E2F4CF81E2F2CFC8
:1012200081E1F0CF87E2EECF8AE2ECCF80E1EACF36
:1012300084E2E8CF88E2E6CF86E2E4CF81E3E2CF42
:1012400080E2E0CF809171029091720208959093B4
:1012500072028093710208958091700208959091B6
:101260007002892B809370020895982F9095809139
:101270007002892380937002089580916F0208950F
:1012800080916D0290916E0208956115710559F07B
:10129000FB0130E020E070E060E02417350719F032
:1012A0006115710511F0CB010895A081B181A817D6
:1012B000B90709F4BF012F5F3F4F3696EECF8091FB
:1012C000730281111CC062D268D29093660280932F
:1012D00065020E9460130E94721390936A028093C9
:1012E00069020E94F0170E94F7179093680280939A
:1012F000670281E08093730290E080E0089584EFBC
:101300009FEF08958F929F92AF92BF92CF92DF92FC
:10131000EF92FF920F931F93CF93DF93CDB7DEB77A
:101320002A970FB6F894DEBF0FBECDBF1A86198676
:1013300018861F821E821D821C821B821A821982BD
:101340008091730207EF1FEF882309F49CC08E0180
:101350000D5F1F4F9E012B5F3F4FAE01495F5F4FF7
:10136000BE01675F7F4F90E080E00E9470198C01A2
:10137000009721F00596029708F0DBC029853A8591
:101380002115310509F402C1ED80FE804B815C819D
:10139000B701640F751F8F8198858617970708F42A
:1013A000F5C0E20EF31ED7019C91903C09F07FC07E
:1013B0004230510508F47BC011968C914091710226
:1013C00050917202452B09F49CC0913F08F071C006
:1013D0002CE1290F2D3008F48BC02DE2290F20318C
:1013E00008F489C0903C21F48150823008F483C015
:1013F00088E3890F8B3008F481C090EEC92E98E005
:10140000D92EEAECF8E06D817E81AE014F5F5F4F2F
:1014100089859A8509955C01C114D104A1F189805F
:101420009A808114910479F18B819C8188159905AA
:1014300008F487C010E000E04B815C8170E060E060
:10144000C7010E94F22901151105E9F449815A8169
:1014500069857A858D819E81680F791FC501F601A6
:101460000995E980FA800D811E812F813885498593
:101470005A856FEF7FEF81E090E00E940C198C019C
:10148000892B09F056C0C8012A960FB6F894DEBF22
:101490000FBECDBFDF91CF911F910F91FF90EF90C5
:1014A000DF90CF90BF90AF909F908F90089580E095
:1014B00085CF30E020E0220F331FF901EB59FD4FBB
:1014C0000190F081E02D309709F497CF892F90E0BB
:1014D0000995009709F491CFDC011296ED91FC91EA
:1014E00013971496CD90DC90309709F08CCF1FC0E5
:1014F00021E030E0E0CF22E030E0DDCF23E030E05B
:10150000DACFD12CC12CE2EDF8E09F3F09F07BCF80
:10151000E0916502F0916602309721F4C90104EF71
:101520001FEF0CC08FEF90E009950097A9F604EF2C
:101530001FEF89859A85009709F4A5CF0E94B81AF4
:10154000A2CF0E94391A8C0189859A850E94B81A07
:1015500070E060E0C4010E94D21998878F830E94D6
:1015600009199E838D836F8178856115710559F006
:10157000C8010E94DB1B9A87898706EF1FEF892B22
:1015800009F058CF59CF08EF1FEF56CF08EF1FEFE4
:10159000D0CF20917302222319F020E00C9477130E
:1015A00087EF9FEF089580917102909172020895E4
:1015B0000E94FC170E945617F5D0E5E6F2E088E09D
:1015C000DF011D928A95E9F71092730290E080E0A6
:1015D00008950C94B31521E040E050E0BA010C945A
:1015E000771386E090E0FA019183808390E080E0B9
:1015F000089547E050E068E371E047CEDF92EF9254
:10160000FF920F931F93CF93DF938A01EC01C60FD4
:10161000D71FE0907702F0907802D9800E94211ABB
:10162000D816190678F082E090E0F8019183808363
:101630008EEF9FEFDF91CF911F910F91FF90EF9071
:10164000DF900895EF2841F482E090E0F801918363
:10165000808384EF9FEFEECF89818093760290E0C4
:101660000196F8019183808390E080E0E3CFCF93EF
:10167000DF93EA010E946416882321F00E942E1A4B
:101680000E94651682E090E0998388838BEF9FEF3C
:10169000DF91CF910895CF93DF93EB0186E0FB01BB
:1016A00011928A95E9F78FEF8883D6DD8983E5DD8E
:1016B0008A83E6DD9D838C83DF91CF910895CF935C
:1016C000DF93EA010E946716811109C082E090E071
:1016D0009983888385EF9FEFDF91CF91089590E004
:1016E00080E0B5DD81E090E09983888390E080E040
:1016F000F3CF0F931F93CF93DF93EA018C01060F73
:10170000171F0E94671681110BC082E090E0998339
:10171000888385EF9FEFDF91CF911F910F910895FF
:10172000F8018181823038F082E090E099838883EB
:101730008EEF9FEFF0CF81E090E089DD88E090E0D0
:101740009983888390E080E0E6CFCF93DF93009782
:10175000D1F4EB01FB01329686E0DF011D928A9500
:10176000E9F78FEF888385E089831A820E94211A26
:101770008B830E94201A9D838C8381E08E838F83CC
:10178000DF91CF910895DF91CF911ACD89EF9AE043
:1017900090937502809374020895809174029091E1
:1017A0007502089510927502109274020895809146
:1017B0007702909178020895411105C06115710575
:1017C0008105910561F060937702709378028093B0
:1017D000790290937A0240937B0281E0089580E041
:1017E0000895FF920F931F93CF93DF938A01EC012B
:1017F000C60FD71FF9800E94211AF816190668F043
:1018000082E090E0F801918380838EEF9FEFDF917B
:10181000CF911F910F91FF9008956C817D818E81F2
:101820009F814B81C9DF811108C082E090E0F801FF
:101830009183808384EF9FEFEACF89818093760242
:1018400090E00196F8019183808390E080E0DFCF03
:10185000CF93DF93EA01FC01E60FF71F64817581E6
:10186000868197814381A8DF811109C082E090E0E1
:101870009983888384EF9FEFDF91CF91089581E072
:1018800090E09983888390E080E0F6CFE7E7F2E08C
:101890004081518162817381480F511D611D711D0D
:1018A00040835183628373830895CF93C0917602FE
:1018B0004C2F50E0609177027091780201960E945F
:1018C000E9298C2FE3DF10927602CF9108950097DB
:1018D00099F480917702909178022FEFFB01208399
:1018E000892B59F02091760230E02F5F3F4F24176B
:1018F000350719F4CB01D9CF63CC0895009799F43B
:1019000080917702909178022FEFFB012083892B41
:1019100059F02091760230E02F5F3F4F24173507B2
:1019200019F4CB01C2CF4CCC089523E1AC01249F24
:10193000C001259F900D1124E0918002F091810259
:10194000E80FF91F238134812250310981E02230D0
:10195000310508F080E008950F931F93CF93DF9334
:101960000091820210918302D0E0C0E080E00C1769
:101970001D0749F491E0811190E0892FDF91CF910B
:101980001F910F9108958111F5CFCE01CEDF2196E1
:10199000EECFA0918002B0918102109729F12091A1
:1019A00082023091830282179307F0F453E1589F2B
:1019B0009001599F300D1124A20FB31FED91FC919E
:1019C0001197309789F012968C91681768F48DE022
:1019D000689FE00DF11D112480819181892B21F0F8
:1019E00081E09281491708F080E008959C0143E16D
:1019F000429FC001439F900D1124E0918002F0911D
:101A00008102E80FF91F8385823091F481E090E034
:101A1000658176814091090150910A01641775072B
:101A200011F490E080E0892B19F081E0232B09F07C
:101A300080E00895FC01A081B1818DE0689FA00D38
:101A4000B11D112413964D915C9185859685489F13
:101A50009001499F300D589F300D1124C901019606
:101A6000611103C0478144FD04960895EF92FF92EF
:101A70000F931F93CF93DF93EA01FC01E60FF71F4B
:101A800002811381E480F5804F2D6E2DC80181DF26
:101A900081110DC082E090E0998388838EEF9FEFE3
:101AA000DF91CF911F910F91FF90EF900895C801A2
:101AB0003CDF882339F082E090E09983888388EFC7
:101AC0009FEFEECF1093100100930F01E0921101F0
:101AD000F092120181E090E09983888390E080E0A9
:101AE000DFCFCF92DF92EF92FF920F931F93CF93AE
:101AF000DF937A01EC01C60FD71FC0900F01D09081
:101B000010010091110110911201412F602FC601A7
:101B100040DF811110C082E090E0F7019183808363
:101B20008AEF9FEFDF91CF911F910F91FF90EF9080
:101B3000DF90CF900895C601F8DE882341F082E05F
:101B400090E0F7019183808388EF9FEFEBCF4C818A
:101B50005D816E817F819A8189818F3F41F082E032
:101B600090E0F701918380838EEF9FEFDBCFE3E17D
:101B7000EC9D9001ED9D300D1124E0918002F091DB
:101B80008102E20FF31F0190F081E02D2DE0029F12
:101B9000E00DF11D11240190F081E02D27E0129F4E
:101BA000E00DF11D1124808391838B818283438317
:101BB0005483658376831F5F1093120181E090E068
:101BC000F7019183808390E080E0ACCFEF92FF92A9
:101BD0000F931F93CF93DF937A018C01060F171F8A
:101BE000C0918002D0918102209781F021E030E005
:101BF000F80182819381409182025091830284177F
:101C0000950710F030E020E0232B71F482E090E0A3
:101C1000F701918380838EEF9FEFDF91CF911F912A
:101C20000F91FF90EF90089543E1489F9001499FE5
:101C3000300D1124C20FD31F78DE882341F082E0DB
:101C400090E0F7019183808388EF9FEFE6CFF80162
:101C50002481358120383105C8F687818111D6CF9E
:101C60004181842F90E08F7E009741F082E090E0E8
:101C7000F7019183808386EF9FEFCFCF4F833E8321
:101C80002D83268128871986223010F421E02887A9
:101C900021E030E0F70131832083BFCF88E090E07E
:101CA000FA019183808390E080E00895FB018FEF3B
:101CB000808381E181838FEF9FEF9383828380E82C
:101CC00090E095838483168217820895FB018FEF3D
:101CD000808391E0918382839383848384E38583EB
:101CE00081E090E0978386830895DF92EF92FF92E0
:101CF0000F931F93CF93DF93EA01FC01E60FF71FC9
:101D00008181813071F082E090E0998388838FEF48
:101D10009FEFDF91CF911F910F91FF90EF90DF9098
:101D2000089582819381D4802581E680F780009197
:101D30008002109181020115110539F482E090E0D2
:101D4000998388838CEF9FEFE4CF4091820250917A
:101D500083028417950738F082E090E099838883A6
:101D60008EEF9FEFD6CF892B39F082E090E09983F8
:101D7000888386EF9FEFCDCF8D2D8D7FB1F72130FA
:101D8000A1F781E0D11006C091E0E916F10431F02D
:101D900080E004C0E2E0EE16F104D0F3882329F3DA
:101DA00090E080E0C2DD882339F082E090E0998302
:101DB000888388EF9FEFADCFF801D38681E08487D9
:101DC000F686E586108A178681E090E099838883FD
:101DD00090E080E09ECF4CE050E062E671E055CAB2
:101DE0008F929F92BF92CF92DF92EF92FF920F93CA
:101DF0001F93CF93DF93EA01FC01E60FF71F828167
:101E000093810481B580E0918002F0918102309746
:101E100091F482E090E0998388838CEF9FEFDF91CB
:101E2000CF911F910F91FF90EF90DF90CF90BF90D7
:101E30009F908F90089520918202309183028217A3
:101E4000930738F082E090E0998388838EEF9FEFCC
:101E5000E6CF23E1289F6001299FD00C1124EC0DCF
:101E6000FD1DE080F180E114F10499F282810817F0
:101E700048F78DE0089F80011124E00EF11EF70164
:101E800080819181892B29F6BB20E1F2F7E0BF9E8A
:101E900040011124C4010E94B51AF7019183808387
:101EA000E0918002F0918102EC0DFD1D0190F08126
:101EB000E02DE00FF11F80819181009739F482E0DD
:101EC00090E0998388838DEF9FEFA9CFA40170E004
:101ED00060E00E94F2298091800290918102C80EF8
:101EE000D91EF60180819181080F191FF801B28275
:101EF00081E090E09983888390E080E090CFAF927A
:101F0000BF92CF92DF92FF920F931F93CF93DF93F5
:101F1000EA01FC01E60FF71F82819381F4800091B2
:101F20008002109181020115110581F482E090E098
:101F3000998388838CEF9FEFDF91CF911F910F9151
:101F4000FF90DF90CF90BF90AF90089520918202D4
:101F5000309183028217930738F082E090E09983F2
:101F600088838EEF9FEFE8CF2FEF2F0D2C3FA8F740
:101F700023E1289F6001299FD00C11240C0D1D1D09
:101F8000F80180819181892B89F6FDE0FF9E500147
:101F90001124C5010E94B51AF80191838083E09154
:101FA0008002F0918102EC0DFD1D808191810097EE
:101FB00039F482E090E0998388838DEF9FEFBCCF66
:101FC000A50170E060E00E94F229E0918002F091AA
:101FD0008102EC0DFD1DF28281E090E099838883FF
:101FE00090E080E0A9CFCF92DF92EF92FF920F9323
:101FF0001F93CF93DF93860F971FFC0102811381FC
:102000008091800290918102892B81F082E090E0A2
:10201000FA01918380838CEF9FEFDF91CF911F9125
:102020000F91FF90EF90DF90CF900895C801B0E03E
:10203000A0E00197A109B1098F3F9F4FA105B1050C
:1020400040F082E090E0FA01918380838EEF9FEF71
:10205000E4CF7A0183E1809F6001819FD00C11243D
:10206000C6010E94B51AEC01009741F482E090E0AD
:10207000F701918380838DEF9FEFCFCFA60170E0B2
:1020800060E00E94F229D0938102C09380021093F5
:1020900083020093820290E080E02FEF3FEF41E067
:1020A00061E070E08017910741F481E090E0F70172
:1020B0009183808390E080E0B0CF3A8B298B1B86A0
:1020C0004C877E876D87188A1F8601966396EACFB4
:1020D000EF92FF921F93CF93DF93EC0110E0F12C6E
:1020E000E12C6A811617A8F070E0660F771FAE0129
:1020F0004F5E5F4FC7010E94E21A009721F02FEF59
:102100003FEF3A8B298BDF91CF911F91FF90EF909A
:102110000895612FCE018EDC61E070E00E94D2193B
:10212000E816F90608F47C011F5FDBCFF8942091D4
:102130007E0230917F0281E02115310509F080E0B7
:10214000232B09F0789408952F923F924F925F923B
:102150006F927F928F929F92AF92BF92CF92DF92B7
:10216000EF92FF920F931F93CF93DF933C01660E84
:10217000771EF301828193814C01B12CA12CC09177
:102180008002D0918102209769F021E030E06091D7
:102190008202709183028617970710F030E020E0EA
:1021A000232BD1F482E090E0FA01918380838EEFBB
:1021B0009FEFDF91CF911F910F91FF90EF90DF90F4
:1021C000CF90BF90AF909F908F907F906F905F90D7
:1021D0004F903F902F900895809213019092140198
:1021E000A0921501B092160163E1689F9001699F6A
:1021F000300D1124C20FD31FF3018181833040F0D1
:1022000082E090E0FA019183808386EF9FEFD1CF47
:102210002A012B813C81232BF1F4288139819F8174
:1022200091FF2EC0232B09F46FC0209185029A8163
:10223000422F490F5527551FBA0141E050E0613840
:10224000710514F050E040E0452B09F45DC02A8789
:10225000920F909385028150823008F481C066DF2E
:10226000882309F4D8C0F3018181813009F48DC03D
:1022700008F47BC0823009F4C6C090E080E0ADC0B5
:10228000232B09F441C0209184029A81E22FE90FA7
:10229000FF27FF1F41E050E0ED3FF10514F050E053
:1022A00040E0452B89F12A87920F90938402D3CF87
:1022B000A081B181A20FB31F11966C91060F111D61
:1022C0000196295F3F4F8417950794F38D859E856E
:1022D000089F1001099F300C189F300C1124C11465
:1022E000D104D1F48F8184FF17C00E94201AF5E039
:1022F0002F0E311C21E08215930508F420E0A70180
:10230000435F5F4F21110EC082E090E0F2019183A4
:10231000808387EF9FEF4DCF0E94201A2FEF221A64
:10232000320AE8CF88819981E80EF91EF7011483FB
:102330000383FFEFCF1ADF0A7A018A818C151D040F
:1023400009F00CF48CCFE881F981EE0DFF1D42817C
:1023500050E030E020E010E000E090E080E0B3CF1B
:10236000F12CE12CD12CC12CE8CF81E090E09C83B2
:102370008B83F2DA882309F480CF81E090E00E9419
:10238000270980E40E94350978CF89899A890196C6
:1023900061F083E090E09C838B8382E090E00E9478
:1023A000270980E40E942F0968CF8D819E812091AA
:1023B000090130910A0182179307D1F460910D0150
:1023C00070910E01AE014F5E5F4F80910B019091B5
:1023D0000C010E949A1B0097E1F2789422E030E011
:1023E000F20131832083892B99F08DEF9FEFE1CEAD
:1023F00089288A288B2869F6892B59F6CE0168DE50
:10240000188A1F86E8CF82E090E09C838B8335CFCB
:1024100090E080E0CECE82E090E0F2019183808374
:1024200085EF9FEFC6CE8F929F92AF92BF92CF92D1
:10243000DF92EF92FF920F931F93CF93DF93EA0106
:102440008C01060F171FF8018181833098F082E01C
:1024500090E09983888386EF9FEFDF91CF911F9162
:102460000F91FF90EF90DF90CF90BF90AF909F9033
:102470008F9008958091800290918102892B61F064
:1024800081E090E02091820230918302232B11F4AD
:1024900090E080E0892B39F482E090E09983888392
:1024A0008EEF9FEFDACF42DE882309F4DFC0F80118
:1024B0008181813009F495C0E8F0823099F420914F
:1024C000820230918302E0918002F091810290E0DB
:1024D00080E041E050E02817390709F0BDC03CDA40
:1024E000811117C0789481E090E09983888390E00F
:1024F00080E0B3CF2091820230918302E09180028C
:10250000F091810290E080E041E050E02817390727
:1025100041F481E090E00E94270980E40E9435099F
:10252000E1CF63817481672B11F05483438301965B
:102530007396ECCFE0918002F0918102E00FF11FE1
:102540002381348122303105D9F4218932892F3F0A
:102550003F4FB1F4258136814091090150910A0124
:102560002417350761F5AF014F5E5F4F60910D0194
:1025700070910E0180910B0190910C010E949A1BA9
:10258000EFEFCE1ADE0AEE0AFE0A0D5E1F4F4091F3
:1025900082025091830270E060E0C416D506E60620
:1025A000F7063CF5009731F27894892B09F49BCF1C
:1025B00082E090E0998388838DEF9FEF4ECFC11426
:1025C000D104E104F104E1F6232BD1F6CF0180DD43
:1025D000E0918002F0918102E00FF11F108A1786CE
:1025E000CFCF10E000E090E080E0C12CD12C76014C
:1025F000CECF0097C9F610E000E0812C912C540159
:1026000083E0E82EF12C1AC0E0918002F091810263
:10261000E00FF11F83819481029749F4F482E382F1
:1026200082E090E00E94270980E40E942F09FFEFDA
:102630008F1A9F0AAF0ABF0A0D5E1F4F8091820258
:1026400090918302B0E0A0E088169906AA06BB0626
:10265000DCF290E080E0A8CF638174816230710584
:1026600011F4548343830196739635CF82E090E052
:102670009983888385EF9FEFF0CE0097B9F48FEFB1
:10268000FB018083209113013091140143E1429FAB
:10269000C001439F900D1124E0918002F0918102CE
:1026A000E80FF91F8285FB01818308950C94E008EF
:1026B00088E090E0FA019183808390E080E00895C3
:1026C00010927F0210927E02E0E8F2E086E0DF01E5
:1026D0001D928A95E9F78BEE9EE090937D028093A0
:1026E0007C02089580917C0290917D0208952F9242
:1026F0003F924F925F926F927F928F929F92AF9292
:10270000BF92CF92DF92EF92FF920F931F93CF93DE
:10271000DF93CDB7DEB72F970FB6F894DEBF0FBEAD
:10272000CDBFF894E0917E02F0917F023196F09354
:102730007F02E0937E027894409080025090810264
:102740004114510409F40CC2E0918202F091830219
:10275000EF2B09F405C22D8749875A876B877C8741
:1027600098878F831201B12CA12C10E000E080919A
:10277000820290918302A816B90618F4011511057A
:1027800029F1F89480917E0290917F0201979093B5
:102790007F0280937E027894C8012F960FB6F8943A
:1027A000DEBF0FBECDBFDF91CF911F910F91FF9084
:1027B000EF90DF90CF90BF90AF909F908F907F90E1
:1027C0006F905F904F903F902F9008957101E418A3
:1027D000F508D10117968C91179781FD54C0139677
:1027E0008D919C911497039709F04DC015968D918A
:1027F0009C91EF81F8858E179F0709F044C0B501C1
:1028000090E080E07ED48A83209180023091810222
:102810003D832C833D85332309F44CC04C815D817D
:10282000452B09F49AC18091820290918302A816E7
:10283000B90608F092C1C501D9D88823E9F06C81A6
:102840007D816E0D7F1D7D836C83DB011F968D91D5
:102850009C91892B89F0D12CC12CF12CE12CAC81DD
:10286000BD8112968C9112978E151F0409F094F475
:1028700050961C921E921F972A81222321F0B501A7
:1028800090E080E040D43FEFA31AB30A43E1240E66
:10289000311C6DCFAC81BD81ED91FC91EC0DFD1D26
:1028A0008581968165D6BFEFEB1AFB0AEDE0CE0E6F
:1028B000D11CD5CFEC81FD81309709F44EC18091B8
:1028C000820290918302A816B90608F046C1EE0D67
:1028D000FF1DFF87EE87C50189D88B83882339F1D7
:1028E000AE85BF851F968D919C915097019621E0F2
:1028F0001D964D915C918417950709F020E02E8379
:102900001982712C10E000E0AE85BF8512968C9183
:10291000781608F45DC0EE85FF858785908901965D
:10292000658576850E949429908B8787A5CFB1E035
:10293000BE83E6CF992493946BC017D6F601968395
:10294000858382C0D601ED90FC90B7E06B9EE00CD1
:10295000F11C1124F7016381748180818F3F61F143
:1029600021E030E002C0220F331F8A95E2F7C9014F
:10297000092E000CAA0BBB0BFB0140815181628127
:10298000738184239523A623B72321E0892B8A2BE7
:102990008B2B09F420E0D4012C93D70111968C9154
:1029A000F60123853485820F932F911D880E991E81
:1029B0001486138663949BC0418150E0C4010E9439
:1029C000E929EBCF998206EF1FEFC5C01982C3C07A
:1029D000F981F111A0CFEDE07E9E70011124AE854A
:1029E000BF85CD90DC90CE0CDF1C13D49D838C83EF
:1029F000BB81BB2309F49ECF81E0EE85FF8527854F
:102A00003089232B09F080E0982E882309F458C0E0
:102A1000672D8E859F850ED8D60118969C938E9330
:102A2000179761E070E0BED4EE85FF852189328979
:102A30002F3F320709F481CFBC01C901BCD6D601B2
:102A400016969C938E931597D60115968D919C9111
:102A50001697009709F4B6CFEC81FD818E0F9F1F6A
:102A60001A969C938E931997AE85BF85ED91FC9134
:102A70001197EE0EFF1EF70121853285148613860D
:102A80001A968C91870DD9018D93711016C0EE8521
:102A9000FF85878184FF11C049855A856B857C85B8
:102AA000F9014183528363837483F701838594859D
:102AB0000496A80FB91F14861386F701B287A18761
:102AC000D60115968D919C911697892B09F443C0D8
:102AD000EE85FF85258136818091090190910A015B
:102AE0002817390779F019968D909C90612CD601A2
:102AF00012968C911297681608F424CF1A969C921D
:102B00008E921997BE81BB2309F460CF61E070E01B
:102B1000F6018781908546D4D6011796ED90FC90FA
:102B2000189715964D915C91E1E0F0E0BA81BB23D6
:102B300011F0F0E0E0E00C811D819C01B5018827D7
:102B400099278E1B9F0B68D38C01892B21F0F601EE
:102B5000858196810DD57394D7CE0FEF1FEF8CCE64
:102B600010E000E00ECE2F923F924F925F926F9254
:102B70007F928F929F92AF92BF92CF92DF92EF920D
:102B8000FF920F931F93CF93DF93809180029091D8
:102B9000810210E000E0892BA9F0C8DA0AEF1FEFEC
:102BA000882381F02090820230908302C0918002BD
:102BB000D0918102D12CC12C10E000E02C143D04F6
:102BC000A9F47894C801DF91CF911F910F91FF90E4
:102BD000EF90DF90CF90BF90AF909F908F907F90BD
:102BE0006F905F904F903F902F900895C6010E9484
:102BF000F60C882309F18B819C810397E9F48F857A
:102C00009889892BC9F0B60190E080E07AD221E062
:102C100030E0882311F030E020E044245524421AAB
:102C2000530AB12CA12C912C812C8A81881519046E
:102C300009F038F4188A1F864FEFC41AD40A639635
:102C4000BDCFE881F981EA0DFB1D85819681892B35
:102C5000A1F161E070E087819085A4D33C01D9D2D5
:102C60008C01E881F981EA0DFB1D81859285258122
:102C70003681200F311FAC01421B530B9A01478153
:102C80005085421B530B70E060E00E94F229E881FE
:102C9000F981EA0DFB1DE780F0844581568193019F
:102CA000B601C201B9D28C01892B39F0E881F981D2
:102CB000EA0DFB1D858196815BD45FEF851A950A2D
:102CC0008DE0A80EB11CB1CF31CA789408952F922F
:102CD0003F924F925F926F927F929F92AF92BF927C
:102CE000CF92DF92EF92FF920F931F93CF93DF93D8
:102CF00000D000D000D0CDB7DEB700918002109197
:102D00008102992493940115110509F43EC0A09005
:102D10008202B09083020ADA982E8823B1F11092D1
:102D2000810210928002109283021092820210920D
:102D30008402109285028FEF9FEFDC0180931301D4
:102D400090931401A0931501B093160178947AD34F
:102D50001E830D83C12CD12C7601C501B0E0A0E00B
:102D600089839A83AB83BC8322242A94322C898161
:102D70009A81AB81BC81C816D906EA06FB06F4F03D
:102D8000C801F6D380E40E943509892D26960FB636
:102D9000F894DEBF0FBECDBFDF91CF911F910F9191
:102DA000FF90EF90DF90CF90BF90AF909F907F907B
:102DB0006F905F904F903F902F900895AD81BE81AE
:102DC00015968D919C9116972091090130910A01D9
:102DD00082179307D1F451968D919C91DAD4ED81AD
:102DE000FE8180819181B12CA12C412C512C32018A
:102DF000892B89F5BFEFCB1ADB0AEB0AFB0AED81C1
:102E0000FE817396FE83ED83B2CFC114D104E10439
:102E1000F10429F7892B19F7ED81FE8181899289C7
:102E20008F3F980709F057D4AD81BE8152963C92EE
:102E30002E925197D4CF8A0D9B1DDC018D919C91D0
:102E4000009709F095D3BFEF4B1A5B0A6B0A7B0A18
:102E5000EDE0AE0EB11CAD81BE818D919C911197BC
:102E600012964C9150E070E060E0441655066606FC
:102E700077060CF37DD3BECFCF93DF93EA0127DF34
:102E8000811109C082E090E09983888385EF9FEFEC
:102E9000DF91CF91089581E090E00E94270981E0C1
:102EA00090E09983888390E080E0F2CF10DF109269
:102EB0007D0210927C02089542E050E06AEA71E0DF
:102EC0000C944509FF920F931F93CF93DF938A01D0
:102ED000EC01C60FD71FF980B4D20897F81619066F
:102EE00071F068F082E090E0F801918380838EEFCA
:102EF0009FEFDF91CF911F910F91FF9008956C810B
:102F00007D818E819F814B810E94DC0B811108C0E5
:102F100082E090E0F8019183808384EF9FEFE9CF16
:102F2000F9800E94D70B4F2D50E0BE01685F7F4FA4
:102F30000E94E92989810E94460C81E090E0F80115
:102F40009183808390E080E0D4CFDF92EF92FF9274
:102F50000F931F93CF93DF938A01EC01C60FD71F06
:102F60000E94D70B7C01D9806CD2DD2059F00297EA
:102F700021E030E0D816190619F010F030E020E01A
:102F8000232B79F482E090E0F801918380838EEF27
:102F90009FEFDF91CF911F910F91FF90EF90DF9006
:102FA0000895EF2841F482E090E0F8019183808356
:102FB00084EF9FEFEECFF9800E94D70B4F2D50E0AA
:102FC000BE016E5F7F4F0E94E92989810E94460CF5
:102FD00081E090E0F8019183808390E080E0D9CF98
:102FE0008CE597E190938702809386020895809103
:102FF00086029091870208950895FC011182108243
:10300000938382830895DB011D921C92DC0112964A
:10301000ED91FC9113977183608313967C936E936B
:1030200012970895FC0180819181DB018D939C931F
:10303000A081B181109741F08D919C919183808303
:10304000892B11F4F383E2830895FC01808191813F
:10305000DB018D939C93892B11F4738362837183BD
:1030600060830895FC011182108293838283089506
:10307000CF93DF9300D0CDB7DEB71A821982F894D0
:10308000BE016F5F7F4F8DE892E0CCDF89819A812E
:10309000009709F06DD289819A81892B89F7BE0149
:1030A0006F5F7F4F81E992E0BDDF89819A81009750
:1030B00009F05ED289819A81892B89F778940F90E3
:1030C0000F90DF91CF910895CF93DF9300D0CDB7CC
:1030D000DEB71A821982F894BE016F5F7F4F89E8CC
:1030E00092E0A0DF89819A81009709F041D289811D
:1030F0009A81892B89F778940F900F90DF91CF9167
:10310000089581E0089590E080E00895EF92FF92A5
:103110000F931F93CF93DF9300D0CDB7DEB71A8202
:1031200019828091880207EF1FEF8823A1F1F8949C
:10313000BE016F5F7F4F81E992E074DF78948981EF
:103140009A81EE24E394F12C892B51F4F894BE017A
:103150006F5F7F4F8DE892E065DF7894F12CE12C72
:1031600089819A810EEF1FEF0097A9F0FC0142813F
:10317000538164E070E00FD58C01892B61F0F894E5
:1031800069817A81C701880F991F880F991F83571A
:103190009D4F5BDF7894C8010F900F90DF91CF9126
:1031A0001F910F91FF90EF9008950F931F93CF936E
:1031B000DF9300D000D0CDB7DEB71C821B821A820D
:1031C00019828091880207EF1FEF8823C1F0AE01BA
:1031D0004D5F5F4F64E070E0CE0101964FD58C01EA
:1031E000892B69F4E981FA818B819C8193838283A5
:1031F000F89469817A8189E892E005DF7894C801C2
:103200000F900F900F900F90DF91CF911F910F9122
:10321000089554D6049608958F929F92AF92BF92CC
:10322000CF92DF92EF92FF920F931F93CF93DF9392
:1032300000D0CDB7DEB71A821982BC016F5F7F4F15
:103240006330710598F0AA24AA94BA2CC5010F9096
:103250000F90DF91CF911F910F91FF90EF90DF9032
:10326000CF90BF90AF909F908F90089541155105DA
:1032700051F3480159018A016C01CBDF881599058A
:1032800011F7E114F104F9F28E0D9F1DA816B9068D
:10329000D0F2809188028823F1F0F894B50164504F
:1032A00071099701AE014F5F5F4FC80104967BD54E
:1032B0005C01892B71F489819A81F801938382835F
:1032C000C601880F991F880F991FB80183579D4F1A
:1032D0009ADE7894BBCF87EFA82EBB24BA94B6CFE2
:1032E000AF92BF92CF92DF92EF92FF920F931F9314
:1032F000CF93DF9300D0CDB7DEB71A821982892B26
:1033000009F047C06115710509F443C04115510525
:1033100009F43FC02115310509F43BC00115110521
:10332000C1F1809188028823B9F179016A015B01BA
:10333000F894BE016F5F7F4F89E892E073DE789466
:1033400089819A81009759F1DC0112966D917C91E7
:10335000A801049641D58C01E981FA81D501ED934C
:10336000FC93828193810496F6019183808351DFDF
:10337000D7018D939C93C8010F900F90DF91CF914F
:103380001F910F91FF90EF90DF90CF90BF90AF9083
:1033900008950FEF1FEFEFCF07EF1FEFECCF0EEF0A
:1033A0001FEFE9CFCF93DF93EC01672B71F48FD53B
:1033B0008C179D0760F082D52496C80FD91F81D540
:1033C0008C0F9D1FDF91CF9108957ED5F1CF90E0B6
:1033D00080E0F8CF0F931F93CF93DF932091880263
:1033E00021112BC08B01EC018DE892E006DE81E912
:1033F00092E003DE89E892E000DE97D00097C1F406
:1034000066D570E060E0CEDF47E151E062E070E059
:10341000D9D0009769F4809117019091180169D56E
:10342000B801CE019ED3009719F421E020938802C1
:10343000DF91CF911F910F91089584EF9FEFF8CF07
:1034400043C545C5CF93DF9345D5EC01892B11F4D6
:103450000FDE3ADECE01DF91CF910895CF93DF9357
:1034600039D5EC01892B09F403DECE01DF91CF9130
:10347000089580911701909118010895CF93DF93DB
:1034800080918802D0E0C0E08823D1F037D5EC01EC
:10349000892BB1F4EDDD18DE8091170190911801B0
:1034A0001AD1CED1EC01892B59F48DE892E0DADD06
:1034B00081E992E0D7DD89E892E0D4DD10928802BC
:1034C000CE01DF91CF910895EF92FF920F931F935A
:1034D000CF93DF93EC017A018B010F5F1F4F0E9D9D
:1034E000A0010F9D500D1E9D500D112470E060E055
:1034F0000E94F22990E080E0F0E0E0E02FEFE81693
:10350000F90639F4DF91CF911F910F91FF90EF9061
:1035100008951A8219822883309711F0D283C183CB
:103520000196FE01C00FD11FEACFE7E9F2E085E87E
:10353000DF011D928A95E9F710929602109295028A
:10354000E3E2F3E011821082158214821382128268
:103550001782168211861086EFE1F3E01182108245
:103560001382128290E080E0089590E080E0089558
:10357000009739F1DC018E91813041F4E091210313
:10358000F09122033097E9F0CD010994811119C01F
:10359000F8948FEF8C9380912303909124031296DB
:1035A0009C938E931197B0932403A093230380914F
:1035B000250390912603019690932603809325037B
:1035C00078940895EF92FF920F931F93CF93DF9318
:1035D0004115510509F47CC0009709F479C06115C3
:1035E000710509F475C0EA01AB01BC01F894809142
:1035F000230390912403892B19F58AE992E08C7FAB
:103600006D5F7F4F6C7F9B012F5F3F4F249F800139
:10361000259F100D349F100D112420912B03309104
:103620002C032115310509F03CC0E0909502F09083
:10363000960222E830E02E193F092017310730F4B6
:1036400078942FEF3FEF86EF9FEF22C090932403F3
:10365000809323035093280340932703509326031A
:103660004093250370932A036093290310932C033E
:1036700000932B03009709F027DF0E0D1F1D1093F9
:10368000960200939502789430E020E090E080E08C
:1036900039832883DF91CF911F910F91FF90EF9095
:1036A00008952017310760F2909324038093230339
:1036B00050932803409327035093260340932503F8
:1036C00070932A03609329030097E9F2FDDEDBCFB4
:1036D0008FEF9FEFDFCF892B51F5F89410922403E1
:1036E00010922303109228031092270310922603AE
:1036F0001092250310922A031092290320912B0384
:1037000030912C032115310571F080919502909133
:103710009602821B930B90939602809395021092CF
:103720002C0310922B03789490E080E008958FEFA3
:103730009FEF08954115510549F1009739F1611541
:10374000710521F1F89420911F0330912003232B60
:10375000B9F42091210330912203232B89F4909313
:10376000200380931F0370932203609321037894B6
:1037700021E030E090E080E0FA0131832083089579
:1037800078942FEF3FEF86EF9FEFF6CF8FEF9FEF0D
:103790000895019769F4F8941092200310921F0382
:1037A0001092220310922103789490E080E0089513
:1037B0008FEF9FEF08956115710519F4F0E0E0E0D7
:1037C00011C08130910581F4E0911F03F091200335
:1037D0003097A1F3CB0101960995009779F3FC018D
:1037E00081E08193CF010895892B41F780912303D4
:1037F00090912403892B11F38091290390912A033E
:1038000086179707D8F2F8948091250390912603A4
:10381000009731F0E0912303F0912403309711F4E5
:103820007894CCCF218132813093240320932303D9
:103830000197909326038093250311927894D2CF19
:10384000ECE1F3E083E0DF011D928A95E9F7E7E917
:10385000F2E085E8DF011D928A95E9F71092960261
:1038600010929502E3E2F3E08AE0DF011D928A956F
:10387000E9F7EFE1F3E084E0DF011D928A95E9F7D3
:1038800090E080E00895CF93DF93C0911901D0912B
:103890001A01CF3FDC0759F4C4D390931A018093E7
:1038A000190197FF09C0D0931A01C093190184EF41
:1038B0009FEFDF91CF91089590E080E0FACF8230C2
:1038C000910528F480932D0390E080E008958FEF18
:1038D0009FEF08954F925F926F927F92AF92BF9247
:1038E000CF92DF92EF92FF920F931F93CF93DF93CC
:1038F00000D0CDB7DEB71A821982009709F479C0DB
:103900006115710509F475C02091190130911A01F2
:1039100007EF1FEF2F3F3F4F09F445C06B015C01DC
:10392000412C512C3201F12CE12C10E000E09E01E1
:103930002F5F3F4FA6014E195F09B5016E0D7F1D28
:103940008091190190911A01CBD3892B09F04BC0BA
:1039500089819A81009741F4E114F10429F42091BE
:103960002D03222309F442C0E80EF91EEC14FD04D5
:10397000D0F480E8481684E858068EE168067104A1
:1039800020F560E070E0CB010E944B262AE0420E59
:10399000511C611C711C0A3F4FEF140721F0043FBA
:1039A0008FEF1807A1F4C8010F900F90DF91CF910E
:1039B0001F910F91FF90EF90DF90CF90BF90AF904D
:1039C0007F906F905F904F90089501EF1FEF81E01F
:1039D00090E0013F2FEF120711F090E080E0892B7B
:1039E00009F4A5CFE0CF04EF1FEFDDCF0AEF1FEF03
:1039F000DACF0FEF1FEFD7CF4F925F926F927F9288
:103A0000AF92BF92CF92DF92EF92FF920F931F93EC
:103A1000CF93DF9300D0CDB7DEB71A82198200971B
:103A200009F479C06115710509F475C02091190177
:103A300030911A0107EF1FEF2F3F3F4F09F445C0A8
:103A40006B015C01412C512C3201F12CE12C10E076
:103A500000E09E012F5F3F4FA6014E195F09B5019F
:103A60006E0D7F1D8091190190911A01EFD2892B63
:103A700009F04BC089819A81009741F4E114F10467
:103A800029F420912D03222309F442C0E80EF91EE7
:103A9000EC14FD04D0F480E4481682E458068FE06C
:103AA0006806710420F560E070E0CB010E944B26AF
:103AB0002AE0420E511C611C711C0E3F4FEF14078F
:103AC00021F0043F8FEF1807A1F4C8010F900F9069
:103AD000DF91CF911F910F91FF90EF90DF90CF90EA
:103AE000BF90AF907F906F905F904F90089502EFDE
:103AF0001FEF81E090E0023F2FEF120711F090E0FE
:103B000080E0892B09F4A5CFE0CF04EF1FEFDDCFD4
:103B10000EEF1FEFDACF0FEF1FEFD7CF8091190114
:103B200090911A018F3F980749F073D2892B49F47D
:103B30008FEF9FEF90931A018093190190E080E03E
:103B4000089584EF9FEF0895FC01680F791F90E0BE
:103B500080E0E617F70709F408952191820F911D7F
:103B6000F8CF20912E03211113C08DDE009791F420
:103B700010923403109233031092320310923103E7
:103B80001092300310922F0321E020932E0308950A
:103B900084EF9FEF0895AF92BF92CF92DF92EF92A2
:103BA000FF920F931F93CF93DF93009709F460C0A8
:103BB0004630510508F45CC020912E03C7EFDFEFBB
:103BC000222309F449C08C01060F171FF801C08099
:103BD000D180C114D10409F44EC096012A5F3F4F31
:103BE0004217530708F447C07C018091330390913A
:103BF000340393838283B6016C5F7F4F5801A60E16
:103C0000B71EC801A1DFF5019183808364E070E0F5
:103C1000C80160DEEC01892BF9F481E090E04FDE11
:103C2000B601C801049656DEEC01892B91F462E0DE
:103C300070E0C5014FDEEC01892B59F4C70198DC17
:103C400080913303909134030196909334038093D1
:103C5000330390E080E033DECE01DF91CF911F91FE
:103C60000F91FF90EF90DF90CF90BF90AF900895AD
:103C7000CFEFDFEFF1CFC9EFDFEFEECF6F927F92A3
:103C80008F929F92AF92BF92CF92DF92EF92FF926C
:103C90000F931F93CF93DF9300D000D0CDB7DEB743
:103CA000009709F47AC04115510509F476C02091B6
:103CB0002E0307EF1FEF222309F44DC03A017B01C9
:103CC0005C0164E070E0CE01019696DE8C01892BE8
:103CD00009F041C009811A810115110509F45AC082
:103CE000480186E0880E911CB701680D791D80910E
:103CF0001B0190911C015FDD6C01009709F450C01D
:103D0000A70170E060E00E94F22989819A81AB816D
:103D1000BC81EC0CFD1CF70181939193A193B193AD
:103D20007F0181E090E0CBDDB801C70165DE892B22
:103D300031F562E070E0C701800F911F5DDE8C01FC
:103D4000892BE9F490E080E0BADDF501D182C082F0
:103D5000F30191828082C8010F900F900F900F9015
:103D6000DF91CF911F910F91FF90EF90DF90CF9057
:103D7000BF90AF909F908F907F906F90089590E04C
:103D800080E09DDDF50111821082F3011182108225
:103D9000C601EEDB09EF1FEFDECF0FEF1FEFDBCF2A
:103DA00006EF1FEFD8CF0097A1F04115510589F01C
:103DB0002115310571F0F90136966E177F0748F02D
:103DC000DC012D933C93DA01ED93FC9390E080E0CD
:103DD00008958FEF9FEF0895AF92BF92CF92DF9239
:103DE000EF92FF920F931F93CF93DF93009709F405
:103DF0005FC04115510509F45BC06530710508F4D9
:103E000057C020912E03C7EFDFEF222391F1DC0191
:103E1000CD90DC9011971296ED91FC9196012A5F5E
:103E20003F4FC9EFDFEF2617370719F5C0912F0372
:103E3000D0913003209749F521E030E030933003F2
:103E400020932F037A018C01F0933203E093310326
:103E50005601B4E0AB0EB11CB50176DE0A0D1B1D98
:103E6000F801208131818217930729F5D701CD927E
:103E7000DC92CE01DF91CF911F910F91FF90EF90D7
:103E8000DF90CF90BF90AF90089520913103309193
:103E900032032F5F3F4FCCEFDFEFE217F30790F2D3
:103EA000CBEFDFEF2E173F0768F2D0E0C0E0CACFBC
:103EB000CFEFDFEFDECFC3EFDFEFDBCF84E090E0CB
:103EC000089582E090E008958CEF9FEF089580E2DE
:103ED00090E008951092340310923303109232034D
:103EE000109231031092300310922F0390E080E083
:103EF000089590931C0180931B01089580912E03D7
:103F0000882391F00BDE009789F41092340310920D
:103F10003303109232031092310310923003109247
:103F20002F0310922E03089590E080E008950097EB
:103F300049F06115710531F0FC0111821082FB011D
:103F4000118210820895F3CF26E030E040E855E278
:103F500060E070E090E080E000C0892B21F48BE409
:103F600093E00C94732808951F920F920FB60F924E
:103F700011242F933F934F935F936F937F938F936E
:103F80009F93AF93BF93EF93FF9386E997EE909340
:103F9000850080938400B8D0FF91EF91BF91AF91DD
:103FA0009F918F917F916F915F914F913F912F9151
:103FB0000F900FBE0F901F90189586E997EE909383
:103FC000850080938400AFE6B0E08C918E7F8C9367
:103FD000E0E8F0E080818C7F8083E1E8F0E08081A0
:103FE000877E808380818460808380818C7F8083D2
:103FF0008C9181608C930895EFE6F0E08081908150
:104000009E7F90838170089581E00895109235031A
:10401000089568EE73E080E090E03DD690E080E0A7
:10402000089526E030E040E052EC61E070E090E07E
:1040300080E093DF8BE493E08CD7892B21F08BE435
:1040400093E0A1D7F7CF90E080E00895CF92DF9280
:10405000EF92FF920F931F93CF93DF936B017A013F
:10406000E901198218828BE493E073D7892B69F1F7
:104070008601CC24C39482E0D82E8091350381112F
:1040800010C08BE493E07FD70297B9F7C092350355
:10409000F801D1928F018881998101969983888353
:1040A000ECCF888199818E159F0578F48BE493E09D
:1040B0006AD78F3F9807A9F3F80181938F01888110
:1040C0009981019699838883ECCF90E080E0DF911D
:1040D000CF911F910F91FF90EF90DF90CF900895B7
:1040E0000F931F93CF93DF93EA0189018BE493E051
:1040F0000E945729F801D183C08390E080E0DF91CE
:10410000CF911F910F910895CF92DF92EF92FF927E
:10411000CF93DF938091360391E0980F909336030D
:10412000882379F021E030E030933803209337037F
:1041300080933603DF91CF91FF90EF90DF90CF9087
:1041400008957894C0913601D09137016E8D7F8D9E
:1041500088A199A118D420E030E040E85FE4C9D4F8
:104160006B017C016A8D7B8D8C8D9D8D0CD49B01A8
:10417000AC01C701B6016ED3DAD36B017C010E949A
:104180000E02B701A60190E080E00E948101F89440
:10419000809136038150CCCF0F931F93CF93DF9341
:1041A0001092060410920504ACD5CEDEC091360103
:1041B000D09137011982188264E670E080E090E0C7
:1041C0000E94030270E060E090E080E00E948600C0
:1041D000009709F03AC00E948C02F8947894BE01CE
:1041E0006A5D7F4F8A819B810E948900892B59F4E7
:1041F0006FEF7FEFCB010E9418010E94FD01882321
:1042000011F081E08AA7F894D8DE0E94000288238A
:1042100011F080E008C00E94FD018111FACF81E019
:104220009AA59111F6CF8093050478940E942209F3
:104230008C0178948091050481110CC00E94FA02CF
:104240000E94E301F89490E080E0DF91CF911F910C
:104250000F9108950E94E1010E9400028823D9F085
:1042600081E0809306049091060481E0911180E042
:1042700080930504809106048111BEDE0130110592
:1042800029F40E942209892B09F4C0DE0E94220928
:104290008C01BADECFCF0E94FD018111E1CF81E018
:1042A0009AA59111DECF80E0DCCF8F929F92AF92E2
:1042B000BF92DF92EF92FF920F931F93CF93DF9302
:1042C000EC011886DD24D394DA8E812C912C5401D4
:1042D000839489869A86AB86BC8661E083E02CD184
:1042E000DD861882D98E89829A82AB82BC8261E097
:1042F0008BE022D1DD82188AD88E898A9A8AAB8A8D
:10430000BC8AE12CF12C8701A801970165E070E0DF
:1043100080E090E095D19F8B8E8BDD8ADF91CF91ED
:104320001F910F91FF90EF90DF90BF90AF909F9003
:104330008F9008954F925F926F927F928F929F928B
:10434000AF92BF92CF92DF92EF92FF920F931F93A3
:10435000CF93DF938C01C0902501D0902601E0908F
:104360002701F090280180901D0190901E01A090DF
:104370001F01B090200140902101509022016090D7
:10438000230170902401A5019401C701B601ADD3AA
:1043900060E0181654F0C1E0A3019201C701B60114
:1043A000BDD2811101C0C0E06C2F83E0CCD0A3014D
:1043B0009201C701B601B2D260E0882351F0C1E09A
:1043C000A5019401C701B60190D318160CF0C0E006
:1043D0006C2F8BE0B8D065E070E080E090E0ECD02E
:1043E000EC01F801978B868B2091250130912601F5
:1043F00040912701509128016091290170912A0173
:1044000080912B0190912C0174D35B018C01C090A1
:104410002D01D0902E01E0902F01F09030019B01F2
:10442000AC01C701B6017AD287FD11C0C09031013D
:10443000D0903201E0903301F09034019501A80151
:10444000C701B60152D3181614F065017801E8943B
:10445000F7F820E030E04FE753E4C701B6015ED241
:10446000181634F4C12CD12C8FE7E82E83E4F82EF3
:10447000B701A601CE01DF91CF911F910F91FF905F
:10448000EF90DF90CF90BF90AF909F908F907F90F4
:104490006F905F904F905DC0CF93DF93EC01888564
:1044A000811102C081E088878881811102C081E08A
:1044B00088838889811122C081E0888B89899A89C3
:1044C000AB89BC890197A105B105C1F48D89882309
:1044D000A9F065E070E080E090E06ED09F8B8E8B5D
:1044E00040E050E0BA0135D065E070E080E090E057
:1044F00063D09F8B8E8BDF91CF91EFC0DF91CF91F7
:104500000895EF92FF920F931F93CF93DF937C0157
:104510008B01EA0184E090E047D1F801F182E0826A
:104520008BE1FE0111928A95E9F7DF91CF911F91FE
:104530000F91FF90EF900895611101C0A1C4613007
:10454000E9F362E0FBCF662311F061E0D5C460E0DF
:10455000FDCFCF92DF92EF92FF92CF93882331F17C
:104560006A017B01CFEFC80F20E030E0A901CB0149
:10457000B601D4D1181684F0C701B6019058D7D12E
:104580009B01AC016C2F70E090E080E0CF91FF9038
:10459000EF90DF90CF90ACC0C701B601C3D18C2F94
:1045A000CF91FF90EF90DF90CF90E6C3CF91FF9037
:1045B000EF90DF90CF9008950F931F938B019C0194
:1045C00083E036952795179507958A95D1F7075C6F
:1045D0001C4F462F477021E030E0F90102C0EE0F7A
:1045E000FF1F4A95E2F7AF01F80120812423CB0198
:1045F0000196211102C090E080E01F910F91089573
:104600000F931F938B019C0183E036952795179597
:1046100007958A95D1F7677081E090E001C0880F17
:104620006A95EAF7F801E75CFC4F2081452B31F4ED
:104630008095822380831F910F910895822BFACF5A
:104640002F923F924F925F926F927F928F929F92A2
:10465000AF92BF92CF92DF92EF92FF920F931F9390
:10466000CF93DF93D62EC72E782E692E49015A019B
:10467000280161E08D2D04D4CD2DDC2D8E010F5F3E
:104680001F4FA8016D2D7C2D872D962DB9DF20E0C1
:1046900030E0A901C201B70128D2181654F4C201B2
:1046A000B70145D12B01C501B40141D1A201CE0111
:1046B00022D0C801DF91CF911F910F91FF90EF9011
:1046C000DF90CF90BF90AF909F908F907F906F9032
:1046D0005F904F903F902F900895882341F0815034
:1046E000682F70E090E080E050E040E089CF0895CE
:1046F000862FB90141C39C01FC01E859FF4FE491A9
:10470000E33059F138F4E13009F1E23019F160E0B9
:10471000822FF2C3E730C1F1E83009F441C0E43040
:10472000B1F7809180008C7F8260809380009091AF
:104730008100907E9061692B609381005093870087
:10474000409386008091800080621BC084B58068A1
:1047500084BDDDCF84B58062FBCF809180008C7FEB
:1047600082608093800090918100907E9061692B9F
:104770006093810050938700409386008091800071
:10478000806880938000C3CF8091B0008068809360
:10479000B0008091B100887F682B6093B100B7CFE3
:1047A0008091B0008062F3CF4AD06093130470937D
:1047B0001404809315049093160446D06093070464
:1047C000709308048093090490930A0424D06093A2
:1047D0000F0470931004809311049093120420D05E
:1047E00060930B0470930C0480930D0490930E045B
:1047F0001CD060931704709318048093190490934D
:104800001A0418D060931B0470931C0480931D0439
:1048100090931E04089560E070E080E89FE708959B
:1048200060E070E080E89FE7089560E070E080E875
:104830009FEF089560E070E080E89FEF089560E0EA
:1048400070E080EC9FEF089560E070E080EC9FEFF7
:1048500008955058BB27AA270ED00DC1FED030F0C6
:1048600003D120F031F49F3F11F41EF4F3C00EF495
:10487000E095E7FBE9C0E92F0FD180F3BA17620793
:1048800073078407950718F071F49EF527C10EF49D
:10489000E0950B2EBA2FA02D0B01B90190010C0150
:1048A000CA01A0011124FF27591B99F0593F50F468
:1048B000503E68F11A16F040A22F232F342F4427C0
:1048C000585FF3CF469537952795A795F0405395B8
:1048D000C9F77EF41F16BA0B620B730B840BBAF088
:1048E0009150A1F0FF0FBB1F661F771F881FC2F7F3
:1048F0000EC0BA0F621F731F841F48F48795779507
:104900006795B795F7959E3F08F0B3CF9395880FBD
:1049100008F09927EE0F97958795089571D008F4C0
:1049200081E0089504D06894B111D9C00895BCD035
:1049300088F09F5790F0B92F9927B751A0F0D1F088
:10494000660F771F881F991F1AF0BA95C9F712C012
:10495000B13081F0C3D0B1E00895C0C0672F782F87
:104960008827B85F39F0B93FCCF38695779567957E
:10497000B395D9F73EF490958095709561957F4FEA
:104980008F4F9F4F0895E89409C097FB3EF4909590
:104990008095709561957F4F8F4F9F4F9923A9F018
:1049A000F92F96E9BB279395F695879577956795A7
:1049B000B795F111F8CFFAF4BB0F11F460FF1BC0EB
:1049C0006F5F7F4F8F4F9F4F16C0882311F096E97E
:1049D00011C0772321F09EE8872F762F05C066232C
:1049E00071F096E8862F70E060E02AF09A95660FE5
:1049F000771F881FDAF7880F9695879597F908959E
:104A0000990F0008550FAA0BE0E8FEEF16161706DF
:104A1000E807F907C0F012161306E407F50798F047
:104A2000621B730B840B950B39F40A2661F0232B60
:104A3000242B252B21F408950A2609F4A140A695DC
:104A40008FEF811D811D089597F99F6780E870E0C1
:104A500060E008959FEF80EC089500240A941616F4
:104A6000170618060906089500240A94121613065C
:104A7000140605060895092E0394000C11F48823EA
:104A800052F0BB0F40F4BF2B11F460FF04C06F5F06
:104A90007F4F8F4F9F4F089557FD9058440F551FDC
:104AA00059F05F3F71F04795880F97FB991F61F0B0
:104AB0009F3F79F087950895121613061406551F27
:104AC000F2CF4695F1DF08C0161617061806991F93
:104AD000F1CF86957105610508940895E894BB2788
:104AE00066277727CB0197F908958ADF08F48FEFBF
:104AF00008950BD0C0CFB1DF28F0B6DF18F09523B2
:104B000009F0A2CFA7CF1124EACFC6DFA0F3959F6B
:104B1000D1F3950F50E0551F629FF001729FBB27A4
:104B2000F00DB11D639FAA27F00DB11DAA1F649F50
:104B30006627B00DA11D661F829F2227B00DA11D03
:104B4000621F739FB00DA11D621F839FA00D611D89
:104B5000221F749F3327A00D611D231F849F600DAA
:104B6000211D822F762F6A2F11249F5750408AF0E3
:104B7000E1F088234AF0EE0FFF1FBB1F661F771F6F
:104B8000881F91505040A9F79E3F510570F05CCFAF
:104B9000A6CF5F3FECF3983EDCF38695779567955B
:104BA000B795F795E7959F5FC1F7FE2B880F911D8D
:104BB0009695879597F908951F920F920FB60F92C9
:104BC00011242F933F938F939F93AF93BF93809123
:104BD000430390914403A0914503B0914603309163
:104BE000420323E0230F2D3758F50196A11DB11D77
:104BF000209342038093430390934403A09345037F
:104C0000B09346038091470390914803A0914903D4
:104C1000B0914A030196A11DB11D80934703909363
:104C20004803A0934903B0934A03BF91AF919F916A
:104C30008F913F912F910F900FBE0F901F9018955D
:104C400026E8230F0296A11DB11DD2CF3FB7F894DD
:104C50008091470390914803A0914903B0914A0382
:104C600026B5A89B05C02F3F19F00196A11DB11DC7
:104C70003FBFBA2FA92F982F8827BC01CD01620F03
:104C8000711D811D911D42E0660F771F881F991FBE
:104C90004A95D1F708958F929F92AF92BF92CF928B
:104CA000DF92EF92FF926B017C01D0DF4B015C0140
:104CB000C114D104E104F104D9F026D3C7DF681987
:104CC00079098A099B09683E73408105910580F343
:104CD00021E0C21AD108E108F10888EE880E83E0CD
:104CE000981EA11CB11CC114D104E104F10431F7D8
:104CF000FF90EF90DF90CF90BF90AF909F908F90FC
:104D00000895789484B5826084BD84B5816084BD43
:104D100085B5826085BD85B5816085BDEEE6F0E034
:104D2000808181608083E1E8F0E010828081826090
:104D30008083808181608083E0E8F0E08081816011
:104D40008083E1EBF0E0808184608083E0EBF0E041
:104D5000808181608083EAE7F0E0808184608083E5
:104D6000808182608083808181608083808180688F
:104D700080831092C10008951F93CF93DF93182F63
:104D8000EB0161E07DD0209731F460E0812FDF916D
:104D9000CF911F91B1C0CF3FD10511F461E0F6CFA3
:104DA000E12FF0E0E859FF4FE491E33031F140F4B6
:104DB000E130B1F0E230E1F0C038D1057CF7E5CF69
:104DC000E73029F1E83059F1E430B1F78091800003
:104DD000806280938000D0938B00C0938A0004C0CF
:104DE00084B5806884BDC7BDDF91CF911F910895C0
:104DF00084B5806284BDC8BDF7CF80918000806893
:104E000080938000D0938900C0938800EDCF80917B
:104E1000B00080688093B000C093B300E5CF80916C
:104E2000B00080628093B000C093B400DDCF8330C7
:104E300081F028F4813099F08230A9F0089587300C
:104E4000A9F08830C9F08430B1F4809180008F7D62
:104E500003C0809180008F7780938000089584B58F
:104E60008F7784BD089584B58F7DFBCF8091B0008E
:104E70008F778093B00008958091B0008F7DF9CF37
:104E8000CF93DF9390E0FC01E458FF4F24918057CB
:104E90009F4FFC0184918823C9F090E0880F991FEF
:104EA000FC01E255FF4FA591B491FC01EC55FF4F79
:104EB000C591D49161110DC09FB7F8948C91209544
:104EC00082238C938881282328839FBFDF91CF91F1
:104ED0000895623051F49FB7F8943C91822F8095E9
:104EE00083238C93E8812E2BEFCF8FB7F894EC912E
:104EF0002E2B2C938FBFEACF1F93CF93DF93282FB6
:104F000030E0F901E859FF4F8491F901E458FF4F6F
:104F1000D491F901E057FF4FC491CC23A1F0162F93
:104F2000811185DFEC2FF0E0EE0FFF1FEC55FF4FF6
:104F3000A591B4918FB7F894EC91111108C0D09558
:104F4000DE23DC938FBFDF91CF911F910895DE2B7D
:104F5000F8CFFC01918D228D892F90E0805C9F4FCE
:104F6000821B91098F7399270895FC01918D828D81
:104F7000981731F0828DE80FF11D858D90E008952E
:104F80008FEF9FEF0895FC01918D828D981761F04E
:104F9000A28DAE0FBF2FB11D5D968C91928D9F5F3C
:104FA0009F73928F90E008958FEF9FEF0895FC011B
:104FB000538D448D252F30E0842F90E0821B930B7E
:104FC000541710F0CF96089501970895FC01A48D11
:104FD000A80FB92FB11DA35ABF4F2C91848D90E01B
:104FE00001968F739927848FA689B7892C93A089FE
:104FF000B1898C91837080648C93938D848D981388
:1050000006C00288F389E02D80818F7D808308951A
:10501000CF93DF93EC01888D8823B1F0AA89BB89F7
:10502000E889F9898C9185FD03C0808186FD0CC0DB
:105030000FB607FCF7CF8C9185FFF2CF808185FFFB
:10504000EDCFCE01C3DFEACFDF91CF910895EF928C
:10505000FF920F931F93CF93DF93EC0181E0888F32
:105060009B8D8C8D98131AC0E889F989808185FF02
:1050700015C09FB7F894EE89FF896083E889F989A4
:1050800080818370806480839FBF81E090E0DF91A6
:10509000CF911F910F91FF90EF900895F62E0B8DF9
:1050A00010E00F5F1F4F0F731127E02E8C8D8E11B4
:1050B0000BC00FB607FCFACFE889F989808185FF1C
:1050C000F5CFCE0183DFF2CFEB8DEC0FFD2FF11D7D
:1050D000E35AFF4FF0829FB7F8940B8FEA89FB8960
:1050E00080818062D0CFCF92DF92EF92FF921F93A8
:1050F000CF93DF93EC016A017B01122FE889F989D4
:1051000082E08083C11481EED806E104F10499F0B5
:1051100060E079E08DE390E0A701960119D121507C
:10512000310941095109569547953795279521151C
:1051300080E1380790F0E889F989108260E874E826
:105140008EE190E0A701960103D121503109410978
:1051500051095695479537952795EC85FD85308300
:10516000EE85FF852083188EEC89FD891083EA89FE
:10517000FB89808180618083EA89FB8980818860E6
:105180008083EA89FB89808180688083EA89FB8942
:1051900080818F7D8083DF91CF911F91FF90EF9071
:1051A000DF90CF9008951F920F920FB60F921124A7
:1051B0002F938F939F93EF93FF93E0915B03F09175
:1051C0005C038081E0916103F091620382FD1BC06A
:1051D0009081809164038F5F8F73209165038217A4
:1051E00041F0E0916403F0E0E55BFC4F958F809324
:1051F0006403FF91EF919F918F912F910F900FBEBC
:105200000F901F9018958081F4CF1F920F920FB6C8
:105210000F9211242F933F934F935F936F937F933C
:105220008F939F93AF93BF93EF93FF938BE493E0A0
:10523000CDDEFF91EF91BF91AF919F918F917F91C3
:105240006F915F914F913F912F910F900FBE0F90F3
:105250001F901895EBE4F3E01382128288EE93E03E
:10526000A0E0B0E084839583A683B7838AEB91E0C6
:105270009183808385EC90E09587848784EC90E02F
:105280009787868780EC90E0918B808B81EC90E013
:10529000938B828B82EC90E0958B848B86EC90E0F4
:1052A000978B868B118E128E138E148E0895AF926B
:1052B000BF92CF92DF92EF92FF920F931F93CF9303
:1052C000DF936C017B018B01040F151FEB015E0165
:1052D000AE18BF08C017D10759F06991D601ED91FA
:1052E000FC910190F081E02DC6010995892B79F799
:1052F000C501DF91CF911F910F91FF90EF90DF904B
:10530000CF90BF90AF9008950895DB018F939F9346
:1053100047D0BF91AF91A29F800D911DA39F900D8B
:10532000B29F900D11240895AA1BBB1B51E107C029
:10533000AA1FBB1FA617B70710F0A61BB70B881F25
:10534000991F5A95A9F780959095BC01CD010895B4
:10535000A1E21A2EAA1BBB1BFD010DC0AA1FBB1F79
:10536000EE1FFF1FA217B307E407F50720F0A21BEB
:10537000B30BE40BF50B661F771F881F991F1A9458
:1053800069F760957095809590959B01AC01BD0182
:10539000CF010895EE0FFF1F0590F491E02D0994C1
:1053A00009D0A59F900DB49F900DA49F800D911DD5
:1053B00011240895A29FB001B39FC001A39F700D57
:1053C000811D1124911DB29F700D811D1124911D0D
:1053D0000895FB01DC0102C001900D924150504044
:1053E000D8F70895DC0101C06D9341505040E0F7BB
:0653F0000895F894FFCFC0
:1053F600FEFFFFFF01E8030000FFFF00000000FFC3
:10540600FFFFFFFFFFFFFFFFFFFFFFFFFF000000A3
:105416000000000000000070423333234000007F8C
:105426004300007FC301DA01FF00790BA50BFE00E4
:105436005F0BE008FD00F10A4B0BFC00370BE008A0
:10544600F600280CE008F500FE0A670CF400F10BE4
:105456007E0CDE00A4103D13DD001312E008DA0016
:105466004E0E560ED9005813660EE200360DE008B1
:10547600E100710DE008E000E60DE008D6003C17FB
:10548600E008D500F30FE008D4007F0FE008D30052
:10549600F00EE008C000750EE008F000A517E00861
:1054A600ED006217E0080000000027285729D727DB
:0854B6000828A927C327B52728
:00000001FF
